{
  "_format": "hh-sol-artifact-1",
  "contractName": "OKVendor",
  "sourceName": "contracts/OKVendor.sol",
  "abi": [
    {
      "inputs": [
        {
          "internalType": "address",
          "name": "tokenAddress",
          "type": "address"
        }
      ],
      "stateMutability": "nonpayable",
      "type": "constructor"
    },
    {
      "anonymous": false,
      "inputs": [
        {
          "indexed": false,
          "internalType": "address",
          "name": "buyer",
          "type": "address"
        },
        {
          "indexed": false,
          "internalType": "uint256",
          "name": "amountOfNativeCurrency",
          "type": "uint256"
        },
        {
          "indexed": false,
          "internalType": "uint256",
          "name": "amountOfTokens",
          "type": "uint256"
        }
      ],
      "name": "BuyTokens",
      "type": "event"
    },
    {
      "anonymous": false,
      "inputs": [
        {
          "indexed": true,
          "internalType": "address",
          "name": "previousOwner",
          "type": "address"
        },
        {
          "indexed": true,
          "internalType": "address",
          "name": "newOwner",
          "type": "address"
        }
      ],
      "name": "OwnershipTransferred",
      "type": "event"
    },
    {
      "inputs": [],
      "name": "buyTokens",
      "outputs": [
        {
          "internalType": "uint256",
          "name": "tokenAmount",
          "type": "uint256"
        }
      ],
      "stateMutability": "payable",
      "type": "function"
    },
    {
      "inputs": [],
      "name": "getNumberOfTokensInNativeCurrency",
      "outputs": [
        {
          "internalType": "uint256",
          "name": "",
          "type": "uint256"
        }
      ],
      "stateMutability": "view",
      "type": "function"
    },
    {
      "inputs": [],
      "name": "owner",
      "outputs": [
        {
          "internalType": "address",
          "name": "",
          "type": "address"
        }
      ],
      "stateMutability": "view",
      "type": "function"
    },
    {
      "inputs": [],
      "name": "renounceOwnership",
      "outputs": [],
      "stateMutability": "nonpayable",
      "type": "function"
    },
    {
      "inputs": [
        {
          "internalType": "uint256",
          "name": "tokenAmountToSell",
          "type": "uint256"
        }
      ],
      "name": "sellTokens",
      "outputs": [],
      "stateMutability": "nonpayable",
      "type": "function"
    },
    {
      "inputs": [],
      "name": "tokensPerNativeCurrency",
      "outputs": [
        {
          "internalType": "uint256",
          "name": "",
          "type": "uint256"
        }
      ],
      "stateMutability": "view",
      "type": "function"
    },
    {
      "inputs": [
        {
          "internalType": "address",
          "name": "newOwner",
          "type": "address"
        }
      ],
      "name": "transferOwnership",
      "outputs": [],
      "stateMutability": "nonpayable",
      "type": "function"
    },
    {
      "inputs": [],
      "name": "withdraw",
      "outputs": [],
      "stateMutability": "nonpayable",
      "type": "function"
    }
  ],
  "bytecode": "0x6080604052606460025534801561001557600080fd5b50604051610b61380380610b61833981016040819052610034916100b2565b61003d33610062565b600180546001600160a01b0319166001600160a01b03929092169190911790556100e2565b600080546001600160a01b038381166001600160a01b0319831681178455604051919092169283917f8be0079c531659141344cd1fd0a4f28419497f9722a3daafe3b4186f6b6457e09190a35050565b6000602082840312156100c457600080fd5b81516001600160a01b03811681146100db57600080fd5b9392505050565b610a70806100f16000396000f3fe60806040526004361061007b5760003560e01c80638da5cb5b1161004e5780638da5cb5b146100f0578063d0febe4c14610118578063e20b362e14610120578063f2fde38b1461013657600080fd5b806310f64a6f146100805780633ccfd60b146100a45780636c11bcd3146100bb578063715018a6146100db575b600080fd5b34801561008c57600080fd5b506002545b6040519081526020015b60405180910390f35b3480156100b057600080fd5b506100b9610156565b005b3480156100c757600080fd5b506100b96100d6366004610930565b61024e565b3480156100e757600080fd5b506100b9610577565b3480156100fc57600080fd5b506000546040516001600160a01b03909116815260200161009b565b61009161058b565b34801561012c57600080fd5b5061009160025481565b34801561014257600080fd5b506100b9610151366004610949565b61080d565b61015e610886565b47806101bd5760405162461bcd60e51b815260206004820152602360248201527f4e6f204e617469766543757272656e63792070726573656e7420696e2056656e6044820152623237b960e91b60648201526084015b60405180910390fd5b604051600090339047908381818185875af1925050503d80600081146101ff576040519150601f19603f3d011682016040523d82523d6000602084013e610204565b606091505b505090508061024a5760405162461bcd60e51b81526020600482015260126024820152714661696c656420746f20776974686472617760701b60448201526064016101b4565b5050565b600081116102b35760405162461bcd60e51b815260206004820152602c60248201527f5370656369667920616e20616d6f756e74206f6620746f6b656e20677265617460448201526b6572207468616e207a65726f60a01b60648201526084016101b4565b6001546040516370a0823160e01b81523360048201526000916001600160a01b0316906370a0823190602401602060405180830381865afa1580156102fc573d6000803e3d6000fd5b505050506040513d601f19601f820116820180604052508101906103209190610979565b9050818110156103725760405162461bcd60e51b815260206004820152601c60248201527f596f75206861766520696e73756666696369656e7420746f6b656e730000000060448201526064016101b4565b60006002548361038291906109a8565b905047818110156103d55760405162461bcd60e51b815260206004820152601d60248201527f56656e646f722068617320696e73756666696369656e742066756e647300000060448201526064016101b4565b6001546040516323b872dd60e01b8152336004820152306024820152604481018690526000916001600160a01b0316906323b872dd906064016020604051808303816000875af115801561042d573d6000803e3d6000fd5b505050506040513d601f19601f8201168201806040525081019061045191906109ca565b9050806104b65760405162461bcd60e51b815260206004820152602d60248201527f4661696c656420746f207472616e7366657220746f6b656e732066726f6d207560448201526c39b2b9103a37903b32b73237b960991b60648201526084016101b4565b60405133908490600081818185875af1925050503d80600081146104f6576040519150601f19603f3d011682016040523d82523d6000602084013e6104fb565b606091505b505060025490915061050e9060016109ec565b600255806105705760405162461bcd60e51b815260206004820152602960248201527f4661696c656420746f2073656e64204e617469766543757272656e637920746f604482015268103a3432903ab9b2b960b91b60648201526084016101b4565b5050505050565b61057f610886565b61058960006108e0565b565b60008034116105f45760405162461bcd60e51b815260206004820152602f60248201527f596f75206e65656420746f2073656e6420736f6d65204e61746976654375727260448201526e195b98de481d1bc81c1c9bd8d95959608a1b60648201526084016101b4565b6000600254346106049190610a04565b6001546040516370a0823160e01b81523060048201529192506000916001600160a01b03909116906370a0823190602401602060405180830381865afa158015610652573d6000803e3d6000fd5b505050506040513d601f19601f820116820180604052508101906106769190610979565b9050818110156106ee5760405162461bcd60e51b815260206004820152603c60248201527f56656e646f7220636f6e747261637420686173206e6f7420656e6f756768207460448201527f6f6b656e7320746f20706572666f726d207472616e73616374696f6e0000000060648201526084016101b4565b60015460405163a9059cbb60e01b8152336004820152602481018490526000916001600160a01b03169063a9059cbb906044016020604051808303816000875af1158015610740573d6000803e3d6000fd5b505050506040513d601f19601f8201168201806040525081019061076491906109ca565b9050806107b35760405162461bcd60e51b815260206004820181905260248201527f4661696c656420746f207472616e7366657220746f6b656e20746f207573657260448201526064016101b4565b60016002546107c29190610a23565b600255604080513381523460208201529081018490527f0a37b72bb67eee30e09084cf386f8a17817c57f620c3ab95fb25d6a20356ec779060600160405180910390a1509092915050565b610815610886565b6001600160a01b03811661087a5760405162461bcd60e51b815260206004820152602660248201527f4f776e61626c653a206e6577206f776e657220697320746865207a65726f206160448201526564647265737360d01b60648201526084016101b4565b610883816108e0565b50565b6000546001600160a01b031633146105895760405162461bcd60e51b815260206004820181905260248201527f4f776e61626c653a2063616c6c6572206973206e6f7420746865206f776e657260448201526064016101b4565b600080546001600160a01b038381166001600160a01b0319831681178455604051919092169283917f8be0079c531659141344cd1fd0a4f28419497f9722a3daafe3b4186f6b6457e09190a35050565b60006020828403121561094257600080fd5b5035919050565b60006020828403121561095b57600080fd5b81356001600160a01b038116811461097257600080fd5b9392505050565b60006020828403121561098b57600080fd5b5051919050565b634e487b7160e01b600052601160045260246000fd5b6000826109c557634e487b7160e01b600052601260045260246000fd5b500490565b6000602082840312156109dc57600080fd5b8151801515811461097257600080fd5b600082198211156109ff576109ff610992565b500190565b6000816000190483118215151615610a1e57610a1e610992565b500290565b600082821015610a3557610a35610992565b50039056fea2646970667358221220d39f7d0d9cbc1e7858ef928e91a8e0e0c47f4356d642fb4e035ade07dc38070e64736f6c634300080c0033",
  "linkReferences": {},
  "deployedLinkReferences": {}
}