{
  "_format": "hh-sol-artifact-1",
  "contractName": "NFTMarketPlace",
  "sourceName": "contracts/Marketplace.sol",
  "abi": [
    {
      "inputs": [
        {
          "internalType": "address",
          "name": "tokenAddress",
          "type": "address"
        },
        {
          "internalType": "address",
          "name": "NFTAddress",
          "type": "address"
        }
      ],
      "stateMutability": "nonpayable",
      "type": "constructor"
    },
    {
      "anonymous": false,
      "inputs": [
        {
          "indexed": false,
          "internalType": "uint256",
          "name": "NFTid",
          "type": "uint256"
        },
        {
          "indexed": false,
          "internalType": "string",
          "name": "from",
          "type": "string"
        },
        {
          "indexed": false,
          "internalType": "uint256",
          "name": "amount",
          "type": "uint256"
        }
      ],
      "name": "Bid",
      "type": "event"
    },
    {
      "inputs": [
        {
          "internalType": "uint256",
          "name": "_tokenId",
          "type": "uint256"
        },
        {
          "internalType": "uint256",
          "name": "_bid",
          "type": "uint256"
        },
        {
          "internalType": "string",
          "name": "_name",
          "type": "string"
        }
      ],
      "name": "bidding",
      "outputs": [],
      "stateMutability": "nonpayable",
      "type": "function"
    },
    {
      "inputs": [],
      "name": "contractaddress",
      "outputs": [
        {
          "internalType": "address",
          "name": "",
          "type": "address"
        }
      ],
      "stateMutability": "view",
      "type": "function"
    },
    {
      "inputs": [
        {
          "internalType": "uint256",
          "name": "_tokenId",
          "type": "uint256"
        }
      ],
      "name": "getHeigestBid",
      "outputs": [
        {
          "internalType": "address",
          "name": "",
          "type": "address"
        },
        {
          "internalType": "uint256",
          "name": "",
          "type": "uint256"
        },
        {
          "internalType": "bool",
          "name": "",
          "type": "bool"
        }
      ],
      "stateMutability": "view",
      "type": "function"
    },
    {
      "inputs": [
        {
          "internalType": "uint256",
          "name": "_tokenId",
          "type": "uint256"
        }
      ],
      "name": "listNFTforsale",
      "outputs": [],
      "stateMutability": "nonpayable",
      "type": "function"
    },
    {
      "inputs": [
        {
          "internalType": "uint256",
          "name": "_tokenId",
          "type": "uint256"
        }
      ],
      "name": "nftBuy",
      "outputs": [],
      "stateMutability": "nonpayable",
      "type": "function"
    },
    {
      "inputs": [
        {
          "internalType": "uint256",
          "name": "_tokenId",
          "type": "uint256"
        }
      ],
      "name": "stopBid",
      "outputs": [],
      "stateMutability": "nonpayable",
      "type": "function"
    },
    {
      "inputs": [
        {
          "internalType": "uint256",
          "name": "",
          "type": "uint256"
        }
      ],
      "name": "tokenprice",
      "outputs": [
        {
          "internalType": "uint256",
          "name": "",
          "type": "uint256"
        }
      ],
      "stateMutability": "view",
      "type": "function"
    }
  ],
  "bytecode": "0x6080604052600580546001600160a01b0319163017905534801561002257600080fd5b50604051610db8380380610db88339810160408190526100419161008e565b600080546001600160a01b039384166001600160a01b031991821617909155600180549290931691161790556100c1565b80516001600160a01b038116811461008957600080fd5b919050565b600080604083850312156100a157600080fd5b6100aa83610072565b91506100b860208401610072565b90509250929050565b610ce8806100d06000396000f3fe608060405234801561001057600080fd5b506004361061007d5760003560e01c8063709a20d81161005b578063709a20d814610132578063766cb99614610145578063c19b4dcf14610158578063db7fbc861461016b57600080fd5b8063122c01c1146100825780631e294444146100b5578063260131971461011d575b600080fd5b6100a2610090366004610aef565b60026020526000908152604090205481565b6040519081526020015b60405180910390f35b6100f66100c3366004610aef565b600090815260046020526040902060038101546002909101546001600160a01b038216929091600160a81b900460ff1690565b604080516001600160a01b03909416845260208401929092521515908201526060016100ac565b61013061012b366004610aef565b610196565b005b610130610140366004610aef565b6102b9565b610130610153366004610b1e565b6107aa565b610130610166366004610aef565b610a68565b60055461017e906001600160a01b031681565b6040516001600160a01b0390911681526020016100ac565b6001546040516331a9108f60e11b8152600481018390526001600160a01b0390911690636352211e90602401602060405180830381865afa1580156101df573d6000803e3d6000fd5b505050506040513d601f19601f820116820180604052508101906102039190610be2565b6001600160a01b0316336001600160a01b0316146102735760405162461bcd60e51b815260206004820152602260248201527f4f6e6c79206f776e6572732063616e206368616e676520746869732073746174604482015261757360f01b60648201526084015b60405180910390fd5b60008181526004602052604081206003810180546001830180546001600160a01b0319163317905561010160a01b61ffff60a01b19909116179055918255600290910155565b600081815260046020526040902060030154600160a01b900460ff166103215760405162461bcd60e51b815260206004820152601b60248201527f546f6b656e206d757374206265206f6e2073616c652066697273740000000000604482015260640161026a565b600081815260046020526040902060030154600160a81b900460ff1615156001141561038f5760405162461bcd60e51b815260206004820152601860248201527f62696464696e67206e6f742066696e6973686564207965740000000000000000604482015260640161026a565b6001546040516331a9108f60e11b81526004810183905233916001600160a01b031690636352211e90602401602060405180830381865afa1580156103d8573d6000803e3d6000fd5b505050506040513d601f19601f820116820180604052508101906103fc9190610be2565b6001600160a01b0316146104525760405162461bcd60e51b815260206004820152601b60248201527f6f6e6c79206f776e65722063616e20616c6c6f772073656c6c20210000000000604482015260640161026a565b60008181526004602081905260408083206001810154600282015494546003909201549251636eb1769f60e11b81526001600160a01b03938416948101949094523060248501528216939283929091169063dd62ed3e90604401602060405180830381865afa1580156104c9573d6000803e3d6000fd5b505050506040513d601f19601f820116820180604052508101906104ed9190610c12565b101561053b5760405162461bcd60e51b815260206004820152601760248201527f496e73756666696369656e7420616c6c6f77616e63652e000000000000000000604482015260640161026a565b60008054848252600460208190526040928390206003015492516370a0823160e01b81526001600160a01b03938416918101919091528392909116906370a0823190602401602060405180830381865afa15801561059d573d6000803e3d6000fd5b505050506040513d601f19601f820116820180604052508101906105c19190610c12565b10156106075760405162461bcd60e51b815260206004820152601560248201527424b739bab33334b1b4b2b73a103130b630b731b29760591b604482015260640161026a565b60008381526004602081905260408083206003018054600160a01b60ff60a01b19821617909155925460015491516331a9108f60e11b81529283018790526001600160a01b03908116936323b872dd93908216929190911690636352211e90602401602060405180830381865afa158015610686573d6000803e3d6000fd5b505050506040513d601f19601f820116820180604052508101906106aa9190610be2565b6040516001600160e01b031960e085901b1681526001600160a01b03928316600482015291166024820152604481018490526064016020604051808303816000875af11580156106fe573d6000803e3d6000fd5b505050506040513d601f19601f820116820180604052508101906107229190610c2b565b506001546000848152600460208190526040918290206003015491516323b872dd60e01b815233918101919091526001600160a01b039182166024820152604481018690529116906323b872dd90606401600060405180830381600087803b15801561078d57600080fd5b505af11580156107a1573d6000803e3d6000fd5b50505050505050565b600083815260046020526040902060030154600160a81b900460ff1615156001146108175760405162461bcd60e51b815260206004820181905260248201527f4e4654206973206e6f7420616c6c6f776564206e6f7420666f72206269642021604482015260640161026a565b6001546040516331a9108f60e11b81526004810185905233916001600160a01b031690636352211e90602401602060405180830381865afa158015610860573d6000803e3d6000fd5b505050506040513d601f19601f820116820180604052508101906108849190610be2565b6001600160a01b031614156108db5760405162461bcd60e51b815260206004820152601a60248201527f736f7272792c204f776e65722063616e206e6f74206269642021000000000000604482015260640161026a565b6000821161092b5760405162461bcd60e51b815260206004820152601c60248201527f6269642073686f756c642062652067726561746572207468616e203000000000604482015260640161026a565b6000546040516370a0823160e01b81523360048201526001600160a01b03909116906370a0823190602401602060405180830381865afa158015610973573d6000803e3d6000fd5b505050506040513d601f19601f820116820180604052508101906109979190610c12565b8211156109e65760405162461bcd60e51b815260206004820152601f60248201527f6269646465722062616c616e6365206973206c657373207468616e2062696400604482015260640161026a565b600083815260046020526040902060020154821115610a285760008381526004602052604090206002810183905560030180546001600160a01b031916331790555b7f9695611ba86c3882ff9a700c0416b06eb8c33fa25cc1ac0249f01790458d50e5838284604051610a5b93929190610c4d565b60405180910390a1505050565b6000818152600460205260409020600101546001600160a01b03163314610ad15760405162461bcd60e51b815260206004820181905260248201527f6f6e6c79206f776e65722063616e2073746f70207468652062696464696e6720604482015260640161026a565b6000908152600460205260409020600301805460ff60a81b19169055565b600060208284031215610b0157600080fd5b5035919050565b634e487b7160e01b600052604160045260246000fd5b600080600060608486031215610b3357600080fd5b8335925060208401359150604084013567ffffffffffffffff80821115610b5957600080fd5b818601915086601f830112610b6d57600080fd5b813581811115610b7f57610b7f610b08565b604051601f8201601f19908116603f01168101908382118183101715610ba757610ba7610b08565b81604052828152896020848701011115610bc057600080fd5b8260208601602083013760006020848301015280955050505050509250925092565b600060208284031215610bf457600080fd5b81516001600160a01b0381168114610c0b57600080fd5b9392505050565b600060208284031215610c2457600080fd5b5051919050565b600060208284031215610c3d57600080fd5b81518015158114610c0b57600080fd5b83815260006020606081840152845180606085015260005b81811015610c8157868101830151858201608001528201610c65565b81811115610c93576000608083870101525b5060408401949094525050601f91909101601f1916016080019291505056fea26469706673582212201ea0c1b0be6047838729a5fedad5eac404fd4bda9194ac0888b290a5d0c399c764736f6c634300080c0033",
  "linkReferences": {},
  "deployedLinkReferences": {}
}