{
  "_format": "hh-sol-artifact-1",
  "contractName": "NFTVerse",
  "sourceName": "contracts/NFTVerse.sol",
  "abi": [
    {
      "inputs": [],
      "stateMutability": "nonpayable",
      "type": "constructor"
    },
    {
      "anonymous": false,
      "inputs": [
        {
          "indexed": true,
          "internalType": "address",
          "name": "owner",
          "type": "address"
        },
        {
          "indexed": true,
          "internalType": "address",
          "name": "approved",
          "type": "address"
        },
        {
          "indexed": true,
          "internalType": "uint256",
          "name": "tokenId",
          "type": "uint256"
        }
      ],
      "name": "Approval",
      "type": "event"
    },
    {
      "anonymous": false,
      "inputs": [
        {
          "indexed": true,
          "internalType": "address",
          "name": "owner",
          "type": "address"
        },
        {
          "indexed": true,
          "internalType": "address",
          "name": "operator",
          "type": "address"
        },
        {
          "indexed": false,
          "internalType": "bool",
          "name": "approved",
          "type": "bool"
        }
      ],
      "name": "ApprovalForAll",
      "type": "event"
    },
    {
      "anonymous": false,
      "inputs": [
        {
          "indexed": true,
          "internalType": "address",
          "name": "previousOwner",
          "type": "address"
        },
        {
          "indexed": true,
          "internalType": "address",
          "name": "newOwner",
          "type": "address"
        }
      ],
      "name": "OwnershipTransferred",
      "type": "event"
    },
    {
      "anonymous": false,
      "inputs": [
        {
          "indexed": true,
          "internalType": "address",
          "name": "from",
          "type": "address"
        },
        {
          "indexed": true,
          "internalType": "address",
          "name": "to",
          "type": "address"
        },
        {
          "indexed": true,
          "internalType": "uint256",
          "name": "tokenId",
          "type": "uint256"
        }
      ],
      "name": "Transfer",
      "type": "event"
    },
    {
      "inputs": [
        {
          "internalType": "address",
          "name": "to",
          "type": "address"
        },
        {
          "internalType": "uint256",
          "name": "tokenId",
          "type": "uint256"
        }
      ],
      "name": "approve",
      "outputs": [],
      "stateMutability": "nonpayable",
      "type": "function"
    },
    {
      "inputs": [
        {
          "internalType": "address",
          "name": "owner",
          "type": "address"
        }
      ],
      "name": "balanceOf",
      "outputs": [
        {
          "internalType": "uint256",
          "name": "",
          "type": "uint256"
        }
      ],
      "stateMutability": "view",
      "type": "function"
    },
    {
      "inputs": [
        {
          "internalType": "uint256",
          "name": "tokenId",
          "type": "uint256"
        }
      ],
      "name": "getApproved",
      "outputs": [
        {
          "internalType": "address",
          "name": "",
          "type": "address"
        }
      ],
      "stateMutability": "view",
      "type": "function"
    },
    {
      "inputs": [
        {
          "internalType": "address",
          "name": "owner",
          "type": "address"
        },
        {
          "internalType": "address",
          "name": "operator",
          "type": "address"
        }
      ],
      "name": "isApprovedForAll",
      "outputs": [
        {
          "internalType": "bool",
          "name": "",
          "type": "bool"
        }
      ],
      "stateMutability": "view",
      "type": "function"
    },
    {
      "inputs": [
        {
          "internalType": "address",
          "name": "recipient",
          "type": "address"
        },
        {
          "internalType": "string",
          "name": "tokenURI",
          "type": "string"
        }
      ],
      "name": "mintNFT",
      "outputs": [
        {
          "internalType": "uint256",
          "name": "",
          "type": "uint256"
        }
      ],
      "stateMutability": "nonpayable",
      "type": "function"
    },
    {
      "inputs": [],
      "name": "name",
      "outputs": [
        {
          "internalType": "string",
          "name": "",
          "type": "string"
        }
      ],
      "stateMutability": "view",
      "type": "function"
    },
    {
      "inputs": [],
      "name": "owner",
      "outputs": [
        {
          "internalType": "address",
          "name": "",
          "type": "address"
        }
      ],
      "stateMutability": "view",
      "type": "function"
    },
    {
      "inputs": [
        {
          "internalType": "uint256",
          "name": "tokenId",
          "type": "uint256"
        }
      ],
      "name": "ownerOf",
      "outputs": [
        {
          "internalType": "address",
          "name": "",
          "type": "address"
        }
      ],
      "stateMutability": "view",
      "type": "function"
    },
    {
      "inputs": [],
      "name": "renounceOwnership",
      "outputs": [],
      "stateMutability": "nonpayable",
      "type": "function"
    },
    {
      "inputs": [
        {
          "internalType": "address",
          "name": "from",
          "type": "address"
        },
        {
          "internalType": "address",
          "name": "to",
          "type": "address"
        },
        {
          "internalType": "uint256",
          "name": "tokenId",
          "type": "uint256"
        }
      ],
      "name": "safeTransferFrom",
      "outputs": [],
      "stateMutability": "nonpayable",
      "type": "function"
    },
    {
      "inputs": [
        {
          "internalType": "address",
          "name": "from",
          "type": "address"
        },
        {
          "internalType": "address",
          "name": "to",
          "type": "address"
        },
        {
          "internalType": "uint256",
          "name": "tokenId",
          "type": "uint256"
        },
        {
          "internalType": "bytes",
          "name": "data",
          "type": "bytes"
        }
      ],
      "name": "safeTransferFrom",
      "outputs": [],
      "stateMutability": "nonpayable",
      "type": "function"
    },
    {
      "inputs": [
        {
          "internalType": "address",
          "name": "operator",
          "type": "address"
        },
        {
          "internalType": "bool",
          "name": "approved",
          "type": "bool"
        }
      ],
      "name": "setApprovalForAll",
      "outputs": [],
      "stateMutability": "nonpayable",
      "type": "function"
    },
    {
      "inputs": [
        {
          "internalType": "bytes4",
          "name": "interfaceId",
          "type": "bytes4"
        }
      ],
      "name": "supportsInterface",
      "outputs": [
        {
          "internalType": "bool",
          "name": "",
          "type": "bool"
        }
      ],
      "stateMutability": "view",
      "type": "function"
    },
    {
      "inputs": [],
      "name": "symbol",
      "outputs": [
        {
          "internalType": "string",
          "name": "",
          "type": "string"
        }
      ],
      "stateMutability": "view",
      "type": "function"
    },
    {
      "inputs": [
        {
          "internalType": "uint256",
          "name": "tokenId",
          "type": "uint256"
        }
      ],
      "name": "tokenURI",
      "outputs": [
        {
          "internalType": "string",
          "name": "",
          "type": "string"
        }
      ],
      "stateMutability": "view",
      "type": "function"
    },
    {
      "inputs": [
        {
          "internalType": "address",
          "name": "from",
          "type": "address"
        },
        {
          "internalType": "address",
          "name": "to",
          "type": "address"
        },
        {
          "internalType": "uint256",
          "name": "tokenId",
          "type": "uint256"
        }
      ],
      "name": "transferFrom",
      "outputs": [],
      "stateMutability": "nonpayable",
      "type": "function"
    },
    {
      "inputs": [
        {
          "internalType": "address",
          "name": "from",
          "type": "address"
        },
        {
          "internalType": "address",
          "name": "to",
          "type": "address"
        },
        {
          "internalType": "uint256",
          "name": "tokenId",
          "type": "uint256"
        }
      ],
      "name": "transferNFT",
      "outputs": [
        {
          "internalType": "uint256",
          "name": "",
          "type": "uint256"
        }
      ],
      "stateMutability": "nonpayable",
      "type": "function"
    },
    {
      "inputs": [
        {
          "internalType": "address",
          "name": "newOwner",
          "type": "address"
        }
      ],
      "name": "transferOwnership",
      "outputs": [],
      "stateMutability": "nonpayable",
      "type": "function"
    }
  ],
  "bytecode": "0x60806040523480156200001157600080fd5b50604080518082018252600381526213919560ea1b6020808301918252835180850190945260048452631153919560e21b9084015281519192916200005991600091620000e8565b5080516200006f906001906020840190620000e8565b5050506200008c620000866200009260201b60201c565b62000096565b620001cb565b3390565b600780546001600160a01b038381166001600160a01b0319831681179093556040519116919082907f8be0079c531659141344cd1fd0a4f28419497f9722a3daafe3b4186f6b6457e090600090a35050565b828054620000f6906200018e565b90600052602060002090601f0160209004810192826200011a576000855562000165565b82601f106200013557805160ff191683800117855562000165565b8280016001018555821562000165579182015b828111156200016557825182559160200191906001019062000148565b506200017392915062000177565b5090565b5b8082111562000173576000815560010162000178565b600181811c90821680620001a357607f821691505b60208210811415620001c557634e487b7160e01b600052602260045260246000fd5b50919050565b61175580620001db6000396000f3fe608060405234801561001057600080fd5b50600436106101165760003560e01c8063715018a6116100a2578063b88d4fde11610071578063b88d4fde14610239578063c87b56dd1461024c578063e985e9c51461025f578063eacabe141461029b578063f2fde38b146102ae57600080fd5b8063715018a6146102055780638da5cb5b1461020d57806395d89b411461021e578063a22cb4651461022657600080fd5b806323b872dd116100e957806323b872dd1461019857806342842e0e146101ab5780636352211e146101be57806369e9cae1146101d157806370a08231146101f257600080fd5b806301ffc9a71461011b57806306fdde0314610143578063081812fc14610158578063095ea7b314610183575b600080fd5b61012e6101293660046111f0565b6102c1565b60405190151581526020015b60405180910390f35b61014b610313565b60405161013a9190611265565b61016b610166366004611278565b6103a5565b6040516001600160a01b03909116815260200161013a565b6101966101913660046112ad565b6103cc565b005b6101966101a63660046112d7565b6104e7565b6101966101b93660046112d7565b610518565b61016b6101cc366004611278565b610533565b6101e46101df3660046112d7565b610593565b60405190815260200161013a565b6101e4610200366004611313565b6105a7565b61019661062d565b6007546001600160a01b031661016b565b61014b610641565b61019661023436600461132e565b610650565b6101966102473660046113f6565b61065f565b61014b61025a366004611278565b610697565b61012e61026d366004611472565b6001600160a01b03918216600090815260056020908152604080832093909416825291909152205460ff1690565b6101e46102a93660046114a5565b6107a8565b6101966102bc366004611313565b6107e8565b60006001600160e01b031982166380ac58cd60e01b14806102f257506001600160e01b03198216635b5e139f60e01b145b8061030d57506301ffc9a760e01b6001600160e01b03198316145b92915050565b60606000805461032290611507565b80601f016020809104026020016040519081016040528092919081815260200182805461034e90611507565b801561039b5780601f106103705761010080835404028352916020019161039b565b820191906000526020600020905b81548152906001019060200180831161037e57829003601f168201915b5050505050905090565b60006103b082610861565b506000908152600460205260409020546001600160a01b031690565b60006103d782610533565b9050806001600160a01b0316836001600160a01b0316141561044a5760405162461bcd60e51b815260206004820152602160248201527f4552433732313a20617070726f76616c20746f2063757272656e74206f776e656044820152603960f91b60648201526084015b60405180910390fd5b336001600160a01b03821614806104665750610466813361026d565b6104d85760405162461bcd60e51b815260206004820152603e60248201527f4552433732313a20617070726f76652063616c6c6572206973206e6f7420746f60448201527f6b656e206f776e6572206e6f7220617070726f76656420666f7220616c6c00006064820152608401610441565b6104e283836108c0565b505050565b6104f1338261092e565b61050d5760405162461bcd60e51b815260040161044190611542565b6104e28383836109ac565b6104e28383836040518060200160405280600081525061065f565b6000818152600260205260408120546001600160a01b03168061030d5760405162461bcd60e51b8152602060048201526018602482015277115490cdcc8c4e881a5b9d985b1a59081d1bdad95b88125160421b6044820152606401610441565b60006105a0848484610518565b5092915050565b60006001600160a01b0382166106115760405162461bcd60e51b815260206004820152602960248201527f4552433732313a2061646472657373207a65726f206973206e6f7420612076616044820152683634b21037bbb732b960b91b6064820152608401610441565b506001600160a01b031660009081526003602052604090205490565b610635610b48565b61063f6000610ba2565b565b60606001805461032290611507565b61065b338383610bf4565b5050565b610669338361092e565b6106855760405162461bcd60e51b815260040161044190611542565b61069184848484610cc3565b50505050565b60606106a282610861565b600082815260066020526040812080546106bb90611507565b80601f01602080910402602001604051908101604052809291908181526020018280546106e790611507565b80156107345780601f1061070957610100808354040283529160200191610734565b820191906000526020600020905b81548152906001019060200180831161071757829003601f168201915b50505050509050600061075260408051602081019091526000815290565b9050805160001415610765575092915050565b81511561079757808260405160200161077f929190611590565b60405160208183030381529060405292505050919050565b6107a084610cf6565b949350505050565b60006107b2610b48565b6107c0600880546001019055565b60006107cb60085490565b90506107d78482610d69565b6107e18184610eab565b9392505050565b6107f0610b48565b6001600160a01b0381166108555760405162461bcd60e51b815260206004820152602660248201527f4f776e61626c653a206e6577206f776e657220697320746865207a65726f206160448201526564647265737360d01b6064820152608401610441565b61085e81610ba2565b50565b6000818152600260205260409020546001600160a01b031661085e5760405162461bcd60e51b8152602060048201526018602482015277115490cdcc8c4e881a5b9d985b1a59081d1bdad95b88125160421b6044820152606401610441565b600081815260046020526040902080546001600160a01b0319166001600160a01b03841690811790915581906108f582610533565b6001600160a01b03167f8c5be1e5ebec7d5bd14f71427d1e84f3dd0314c0f7b2291e5b200ac8c7c3b92560405160405180910390a45050565b60008061093a83610533565b9050806001600160a01b0316846001600160a01b0316148061098157506001600160a01b0380821660009081526005602090815260408083209388168352929052205460ff165b806107a05750836001600160a01b031661099a846103a5565b6001600160a01b031614949350505050565b826001600160a01b03166109bf82610533565b6001600160a01b031614610a235760405162461bcd60e51b815260206004820152602560248201527f4552433732313a207472616e736665722066726f6d20696e636f72726563742060448201526437bbb732b960d91b6064820152608401610441565b6001600160a01b038216610a855760405162461bcd60e51b8152602060048201526024808201527f4552433732313a207472616e7366657220746f20746865207a65726f206164646044820152637265737360e01b6064820152608401610441565b610a906000826108c0565b6001600160a01b0383166000908152600360205260408120805460019290610ab99084906115d5565b90915550506001600160a01b0382166000908152600360205260408120805460019290610ae79084906115ec565b909155505060008181526002602052604080822080546001600160a01b0319166001600160a01b0386811691821790925591518493918716917fddf252ad1be2c89b69c2b068fc378daa952ba7f163c4a11628f55a4df523b3ef91a4505050565b6007546001600160a01b0316331461063f5760405162461bcd60e51b815260206004820181905260248201527f4f776e61626c653a2063616c6c6572206973206e6f7420746865206f776e65726044820152606401610441565b600780546001600160a01b038381166001600160a01b0319831681179093556040519116919082907f8be0079c531659141344cd1fd0a4f28419497f9722a3daafe3b4186f6b6457e090600090a35050565b816001600160a01b0316836001600160a01b03161415610c565760405162461bcd60e51b815260206004820152601960248201527f4552433732313a20617070726f766520746f2063616c6c6572000000000000006044820152606401610441565b6001600160a01b03838116600081815260056020908152604080832094871680845294825291829020805460ff191686151590811790915591519182527f17307eab39ab6107e8899845ad3d59bd9653f200f220920489ca2b5937696c31910160405180910390a3505050565b610cce8484846109ac565b610cda84848484610f45565b6106915760405162461bcd60e51b815260040161044190611604565b6060610d0182610861565b6000610d1860408051602081019091526000815290565b90506000815111610d3857604051806020016040528060008152506107e1565b80610d4284611043565b604051602001610d53929190611590565b6040516020818303038152906040529392505050565b6001600160a01b038216610dbf5760405162461bcd60e51b815260206004820181905260248201527f4552433732313a206d696e7420746f20746865207a65726f20616464726573736044820152606401610441565b6000818152600260205260409020546001600160a01b031615610e245760405162461bcd60e51b815260206004820152601c60248201527f4552433732313a20746f6b656e20616c7265616479206d696e746564000000006044820152606401610441565b6001600160a01b0382166000908152600360205260408120805460019290610e4d9084906115ec565b909155505060008181526002602052604080822080546001600160a01b0319166001600160a01b03861690811790915590518392907fddf252ad1be2c89b69c2b068fc378daa952ba7f163c4a11628f55a4df523b3ef908290a45050565b6000828152600260205260409020546001600160a01b0316610f265760405162461bcd60e51b815260206004820152602e60248201527f45524337323155524953746f726167653a2055524920736574206f66206e6f6e60448201526d32bc34b9ba32b73a103a37b5b2b760911b6064820152608401610441565b600082815260066020908152604090912082516104e292840190611141565b60006001600160a01b0384163b1561103857604051630a85bd0160e11b81526001600160a01b0385169063150b7a0290610f89903390899088908890600401611656565b6020604051808303816000875af1925050508015610fc4575060408051601f3d908101601f19168201909252610fc191810190611693565b60015b61101e573d808015610ff2576040519150601f19603f3d011682016040523d82523d6000602084013e610ff7565b606091505b5080516110165760405162461bcd60e51b815260040161044190611604565b805181602001fd5b6001600160e01b031916630a85bd0160e11b1490506107a0565b506001949350505050565b6060816110675750506040805180820190915260018152600360fc1b602082015290565b8160005b8115611091578061107b816116b0565b915061108a9050600a836116e1565b915061106b565b60008167ffffffffffffffff8111156110ac576110ac61136a565b6040519080825280601f01601f1916602001820160405280156110d6576020820181803683370190505b5090505b84156107a0576110eb6001836115d5565b91506110f8600a866116f5565b6111039060306115ec565b60f81b81838151811061111857611118611709565b60200101906001600160f81b031916908160001a90535061113a600a866116e1565b94506110da565b82805461114d90611507565b90600052602060002090601f01602090048101928261116f57600085556111b5565b82601f1061118857805160ff19168380011785556111b5565b828001600101855582156111b5579182015b828111156111b557825182559160200191906001019061119a565b506111c19291506111c5565b5090565b5b808211156111c157600081556001016111c6565b6001600160e01b03198116811461085e57600080fd5b60006020828403121561120257600080fd5b81356107e1816111da565b60005b83811015611228578181015183820152602001611210565b838111156106915750506000910152565b6000815180845261125181602086016020860161120d565b601f01601f19169290920160200192915050565b6020815260006107e16020830184611239565b60006020828403121561128a57600080fd5b5035919050565b80356001600160a01b03811681146112a857600080fd5b919050565b600080604083850312156112c057600080fd5b6112c983611291565b946020939093013593505050565b6000806000606084860312156112ec57600080fd5b6112f584611291565b925061130360208501611291565b9150604084013590509250925092565b60006020828403121561132557600080fd5b6107e182611291565b6000806040838503121561134157600080fd5b61134a83611291565b91506020830135801515811461135f57600080fd5b809150509250929050565b634e487b7160e01b600052604160045260246000fd5b600067ffffffffffffffff8084111561139b5761139b61136a565b604051601f8501601f19908116603f011681019082821181831017156113c3576113c361136a565b816040528093508581528686860111156113dc57600080fd5b858560208301376000602087830101525050509392505050565b6000806000806080858703121561140c57600080fd5b61141585611291565b935061142360208601611291565b925060408501359150606085013567ffffffffffffffff81111561144657600080fd5b8501601f8101871361145757600080fd5b61146687823560208401611380565b91505092959194509250565b6000806040838503121561148557600080fd5b61148e83611291565b915061149c60208401611291565b90509250929050565b600080604083850312156114b857600080fd5b6114c183611291565b9150602083013567ffffffffffffffff8111156114dd57600080fd5b8301601f810185136114ee57600080fd5b6114fd85823560208401611380565b9150509250929050565b600181811c9082168061151b57607f821691505b6020821081141561153c57634e487b7160e01b600052602260045260246000fd5b50919050565b6020808252602e908201527f4552433732313a2063616c6c6572206973206e6f7420746f6b656e206f776e6560408201526d1c881b9bdc88185c1c1c9bdd995960921b606082015260800190565b600083516115a281846020880161120d565b8351908301906115b681836020880161120d565b01949350505050565b634e487b7160e01b600052601160045260246000fd5b6000828210156115e7576115e76115bf565b500390565b600082198211156115ff576115ff6115bf565b500190565b60208082526032908201527f4552433732313a207472616e7366657220746f206e6f6e20455243373231526560408201527131b2b4bb32b91034b6b83632b6b2b73a32b960711b606082015260800190565b6001600160a01b038581168252841660208201526040810183905260806060820181905260009061168990830184611239565b9695505050505050565b6000602082840312156116a557600080fd5b81516107e1816111da565b60006000198214156116c4576116c46115bf565b5060010190565b634e487b7160e01b600052601260045260246000fd5b6000826116f0576116f06116cb565b500490565b600082611704576117046116cb565b500690565b634e487b7160e01b600052603260045260246000fdfea26469706673582212202cd55f5a9f1da17a431b5e59cffc4b65d18b9c8fd8bb10c6fcbed2e847992f1c64736f6c634300080c0033",
  "linkReferences": {},
  "deployedLinkReferences": {}
}