{
  "_format": "hh-sol-artifact-1",
  "contractName": "NumberChanger",
  "sourceName": "contracts/NumberChanger.sol",
  "abi": [
    {
      "inputs": [],
      "name": "getNumber",
      "outputs": [
        {
          "internalType": "uint256",
          "name": "",
          "type": "uint256"
        }
      ],
      "stateMutability": "view",
      "type": "function"
    },
    {
      "inputs": [
        {
          "internalType": "uint256",
          "name": "_number",
          "type": "uint256"
        }
      ],
      "name": "setNumber",
      "outputs": [],
      "stateMutability": "nonpayable",
      "type": "function"
    }
  ],
  "bytecode": "0x6080604052348015600f57600080fd5b5060ac8061001e6000396000f3fe6080604052348015600f57600080fd5b506004361060325760003560e01c80633fb5c1cb146037578063f2c9ecd8146049575b600080fd5b60476042366004605e565b600055565b005b60005460405190815260200160405180910390f35b600060208284031215606f57600080fd5b503591905056fea2646970667358221220d9a0794bbb5c07fa4283e8f1a24b81b56c7d6c4317e6970dffe9ad5f62a0d8b264736f6c634300080c0033",
  "linkReferences": {},
  "deployedLinkReferences": {}
}